{
  "_format": "hh-sol-artifact-1",
  "contractName": "Marketplace",
  "sourceName": "contracts/Marketplace.sol",
  "abi": [
    {
      "inputs": [
        {
          "internalType": "uint256",
          "name": "_feePercent",
          "type": "uint256"
        }
      ],
      "stateMutability": "nonpayable",
      "type": "constructor"
    },
    {
      "inputs": [],
      "name": "feeAccount",
      "outputs": [
        {
          "internalType": "address payable",
          "name": "",
          "type": "address"
        }
      ],
      "stateMutability": "view",
      "type": "function"
    },
    {
      "inputs": [],
      "name": "feePercent",
      "outputs": [
        {
          "internalType": "uint256",
          "name": "",
          "type": "uint256"
        }
      ],
      "stateMutability": "view",
      "type": "function"
    },
    {
      "inputs": [
        {
          "internalType": "uint256",
          "name": "_itemId",
          "type": "uint256"
        }
      ],
      "name": "getTotalPrice",
      "outputs": [
        {
          "internalType": "uint256",
          "name": "",
          "type": "uint256"
        }
      ],
      "stateMutability": "view",
      "type": "function"
    },
    {
      "inputs": [],
      "name": "itemCount",
      "outputs": [
        {
          "internalType": "uint256",
          "name": "",
          "type": "uint256"
        }
      ],
      "stateMutability": "view",
      "type": "function"
    },
    {
      "inputs": [
        {
          "internalType": "uint256",
          "name": "",
          "type": "uint256"
        }
      ],
      "name": "items",
      "outputs": [
        {
          "internalType": "uint256",
          "name": "itemId",
          "type": "uint256"
        },
        {
          "internalType": "contract IERC721",
          "name": "nft",
          "type": "address"
        },
        {
          "internalType": "uint256",
          "name": "tokenId",
          "type": "uint256"
        },
        {
          "internalType": "uint256",
          "name": "price",
          "type": "uint256"
        },
        {
          "internalType": "string",
          "name": "name",
          "type": "string"
        },
        {
          "internalType": "string",
          "name": "image",
          "type": "string"
        },
        {
          "internalType": "string",
          "name": "desc",
          "type": "string"
        },
        {
          "internalType": "address payable",
          "name": "seller",
          "type": "address"
        },
        {
          "internalType": "bool",
          "name": "sold",
          "type": "bool"
        }
      ],
      "stateMutability": "view",
      "type": "function"
    },
    {
      "inputs": [
        {
          "internalType": "contract IERC721",
          "name": "_nft",
          "type": "address"
        },
        {
          "internalType": "uint256",
          "name": "_tokenId",
          "type": "uint256"
        },
        {
          "internalType": "uint256",
          "name": "_price",
          "type": "uint256"
        },
        {
          "internalType": "string",
          "name": "_name",
          "type": "string"
        },
        {
          "internalType": "string",
          "name": "_image",
          "type": "string"
        },
        {
          "internalType": "string",
          "name": "_desc",
          "type": "string"
        }
      ],
      "name": "makeItem",
      "outputs": [],
      "stateMutability": "nonpayable",
      "type": "function"
    },
    {
      "inputs": [
        {
          "internalType": "uint256",
          "name": "_itemId",
          "type": "uint256"
        }
      ],
      "name": "purchaseItem",
      "outputs": [],
      "stateMutability": "payable",
      "type": "function"
    }
  ],
  "bytecode": "0x60c06040523480156200001157600080fd5b5060405162001510380380620015108339818101604052810190620000379190620000ba565b3373ffffffffffffffffffffffffffffffffffffffff1660808173ffffffffffffffffffffffffffffffffffffffff16815250508060a0818152505050620000ec565b600080fd5b6000819050919050565b62000094816200007f565b8114620000a057600080fd5b50565b600081519050620000b48162000089565b92915050565b600060208284031215620000d357620000d26200007a565b5b6000620000e384828501620000a3565b91505092915050565b60805160a0516113f062000120600039600081816101e901526104440152600081816101bf015261061c01526113f06000f3fe6080604052600436106100705760003560e01c8063bfb231d21161004e578063bfb231d2146100f6578063ca7dd3751461013b578063d38ea5bf14610178578063eaebcc3c1461019457610070565b806365e17c9d146100755780636bfb0d01146100a05780637fd6f15c146100cb575b600080fd5b34801561008157600080fd5b5061008a6101bd565b6040516100979190610aaa565b60405180910390f35b3480156100ac57600080fd5b506100b56101e1565b6040516100c29190610ade565b60405180910390f35b3480156100d757600080fd5b506100e06101e7565b6040516100ed9190610ade565b60405180910390f35b34801561010257600080fd5b5061011d60048036038101906101189190610b39565b61020b565b60405161013299989796959493929190610c79565b60405180910390f35b34801561014757600080fd5b50610162600480360381019061015d9190610b39565b61043e565b60405161016f9190610ade565b60405180910390f35b610192600480360381019061018d9190610b39565b6104a1565b005b3480156101a057600080fd5b506101bb60048036038101906101b69190610ea0565b610749565b005b7f000000000000000000000000000000000000000000000000000000000000000081565b60005481565b7f000000000000000000000000000000000000000000000000000000000000000081565b60016020528060005260406000206000915090508060000154908060010160009054906101000a900473ffffffffffffffffffffffffffffffffffffffff169080600201549080600301549080600401805461026690610fb0565b80601f016020809104026020016040519081016040528092919081815260200182805461029290610fb0565b80156102df5780601f106102b4576101008083540402835291602001916102df565b820191906000526020600020905b8154815290600101906020018083116102c257829003601f168201915b5050505050908060050180546102f490610fb0565b80601f016020809104026020016040519081016040528092919081815260200182805461032090610fb0565b801561036d5780601f106103425761010080835404028352916020019161036d565b820191906000526020600020905b81548152906001019060200180831161035057829003601f168201915b50505050509080600601805461038290610fb0565b80601f01602080910402602001604051908101604052809291908181526020018280546103ae90610fb0565b80156103fb5780601f106103d0576101008083540402835291602001916103fb565b820191906000526020600020905b8154815290600101906020018083116103de57829003601f168201915b5050505050908060070160009054906101000a900473ffffffffffffffffffffffffffffffffffffffff16908060070160149054906101000a900460ff16905089565b600060647f0000000000000000000000000000000000000000000000000000000000000000606461046f9190611011565b60016000858152602001908152602001600020600301546104909190611067565b61049a91906110f0565b9050919050565b60006104ac8261043e565b905060006001600084815260200190815260200160002090506000831180156104d757506000548311155b610516576040517f08c379a000000000000000000000000000000000000000000000000000000000815260040161050d9061116d565b60405180910390fd5b81341015610559576040517f08c379a0000000000000000000000000000000000000000000000000000000008152600401610550906111ff565b60405180910390fd5b8060070160149054906101000a900460ff16156105ab576040517f08c379a00000000000000000000000000000000000000000000000000000000081526004016105a29061126b565b60405180910390fd5b8060070160009054906101000a900473ffffffffffffffffffffffffffffffffffffffff1673ffffffffffffffffffffffffffffffffffffffff166108fc82600301549081150290604051600060405180830381858888f19350505050158015610619573d6000803e3d6000fd5b507f000000000000000000000000000000000000000000000000000000000000000073ffffffffffffffffffffffffffffffffffffffff166108fc826003015484610664919061128b565b9081150290604051600060405180830381858888f1935050505015801561068f573d6000803e3d6000fd5b5060018160070160146101000a81548160ff0219169083151502179055508060010160009054906101000a900473ffffffffffffffffffffffffffffffffffffffff1673ffffffffffffffffffffffffffffffffffffffff166323b872dd303384600201546040518463ffffffff1660e01b8152600401610712939291906112ce565b600060405180830381600087803b15801561072c57600080fd5b505af1158015610740573d6000803e3d6000fd5b50505050505050565b6000841161078c576040517f08c379a000000000000000000000000000000000000000000000000000000000815260040161078390611351565b60405180910390fd5b60008081548092919061079e90611371565b91905055508573ffffffffffffffffffffffffffffffffffffffff166323b872dd3330886040518463ffffffff1660e01b81526004016107e0939291906112ce565b600060405180830381600087803b1580156107fa57600080fd5b505af115801561080e573d6000803e3d6000fd5b5050505060405180610120016040528060005481526020018773ffffffffffffffffffffffffffffffffffffffff1681526020018681526020018581526020018481526020018381526020018281526020013373ffffffffffffffffffffffffffffffffffffffff1681526020016000151581525060016000805481526020019081526020016000206000820151816000015560208201518160010160006101000a81548173ffffffffffffffffffffffffffffffffffffffff021916908373ffffffffffffffffffffffffffffffffffffffff160217905550604082015181600201556060820151816003015560808201518160040190805190602001906109189291906109c6565b5060a08201518160050190805190602001906109359291906109c6565b5060c08201518160060190805190602001906109529291906109c6565b5060e08201518160070160006101000a81548173ffffffffffffffffffffffffffffffffffffffff021916908373ffffffffffffffffffffffffffffffffffffffff1602179055506101008201518160070160146101000a81548160ff021916908315150217905550905050505050505050565b8280546109d290610fb0565b90600052602060002090601f0160209004810192826109f45760008555610a3b565b82601f10610a0d57805160ff1916838001178555610a3b565b82800160010185558215610a3b579182015b82811115610a3a578251825591602001919060010190610a1f565b5b509050610a489190610a4c565b5090565b5b80821115610a65576000816000905550600101610a4d565b5090565b600073ffffffffffffffffffffffffffffffffffffffff82169050919050565b6000610a9482610a69565b9050919050565b610aa481610a89565b82525050565b6000602082019050610abf6000830184610a9b565b92915050565b6000819050919050565b610ad881610ac5565b82525050565b6000602082019050610af36000830184610acf565b92915050565b6000604051905090565b600080fd5b600080fd5b610b1681610ac5565b8114610b2157600080fd5b50565b600081359050610b3381610b0d565b92915050565b600060208284031215610b4f57610b4e610b03565b5b6000610b5d84828501610b24565b91505092915050565b6000819050919050565b6000610b8b610b86610b8184610a69565b610b66565b610a69565b9050919050565b6000610b9d82610b70565b9050919050565b6000610baf82610b92565b9050919050565b610bbf81610ba4565b82525050565b600081519050919050565b600082825260208201905092915050565b60005b83811015610bff578082015181840152602081019050610be4565b83811115610c0e576000848401525b50505050565b6000601f19601f8301169050919050565b6000610c3082610bc5565b610c3a8185610bd0565b9350610c4a818560208601610be1565b610c5381610c14565b840191505092915050565b60008115159050919050565b610c7381610c5e565b82525050565b600061012082019050610c8f600083018c610acf565b610c9c602083018b610bb6565b610ca9604083018a610acf565b610cb66060830189610acf565b8181036080830152610cc88188610c25565b905081810360a0830152610cdc8187610c25565b905081810360c0830152610cf08186610c25565b9050610cff60e0830185610a9b565b610d0d610100830184610c6a565b9a9950505050505050505050565b6000610d2682610a69565b9050919050565b6000610d3882610d1b565b9050919050565b610d4881610d2d565b8114610d5357600080fd5b50565b600081359050610d6581610d3f565b92915050565b600080fd5b600080fd5b7f4e487b7100000000000000000000000000000000000000000000000000000000600052604160045260246000fd5b610dad82610c14565b810181811067ffffffffffffffff82111715610dcc57610dcb610d75565b5b80604052505050565b6000610ddf610af9565b9050610deb8282610da4565b919050565b600067ffffffffffffffff821115610e0b57610e0a610d75565b5b610e1482610c14565b9050602081019050919050565b82818337600083830152505050565b6000610e43610e3e84610df0565b610dd5565b905082815260208101848484011115610e5f57610e5e610d70565b5b610e6a848285610e21565b509392505050565b600082601f830112610e8757610e86610d6b565b5b8135610e97848260208601610e30565b91505092915050565b60008060008060008060c08789031215610ebd57610ebc610b03565b5b6000610ecb89828a01610d56565b9650506020610edc89828a01610b24565b9550506040610eed89828a01610b24565b945050606087013567ffffffffffffffff811115610f0e57610f0d610b08565b5b610f1a89828a01610e72565b935050608087013567ffffffffffffffff811115610f3b57610f3a610b08565b5b610f4789828a01610e72565b92505060a087013567ffffffffffffffff811115610f6857610f67610b08565b5b610f7489828a01610e72565b9150509295509295509295565b7f4e487b7100000000000000000000000000000000000000000000000000000000600052602260045260246000fd5b60006002820490506001821680610fc857607f821691505b60208210811415610fdc57610fdb610f81565b5b50919050565b7f4e487b7100000000000000000000000000000000000000000000000000000000600052601160045260246000fd5b600061101c82610ac5565b915061102783610ac5565b9250827fffffffffffffffffffffffffffffffffffffffffffffffffffffffffffffffff0382111561105c5761105b610fe2565b5b828201905092915050565b600061107282610ac5565b915061107d83610ac5565b9250817fffffffffffffffffffffffffffffffffffffffffffffffffffffffffffffffff04831182151516156110b6576110b5610fe2565b5b828202905092915050565b7f4e487b7100000000000000000000000000000000000000000000000000000000600052601260045260246000fd5b60006110fb82610ac5565b915061110683610ac5565b925082611116576111156110c1565b5b828204905092915050565b7f6974656d20646f65736e27742065786973740000000000000000000000000000600082015250565b6000611157601283610bd0565b915061116282611121565b602082019050919050565b600060208201905081810360008301526111868161114a565b9050919050565b7f6e6f7420656e6f75676820657468657220746f20636f766572206974656d207060008201527f7269636520616e64206d61726b65742066656500000000000000000000000000602082015250565b60006111e9603383610bd0565b91506111f48261118d565b604082019050919050565b60006020820190508181036000830152611218816111dc565b9050919050565b7f6974656d20616c726561647920736f6c64000000000000000000000000000000600082015250565b6000611255601183610bd0565b91506112608261121f565b602082019050919050565b6000602082019050818103600083015261128481611248565b9050919050565b600061129682610ac5565b91506112a183610ac5565b9250828210156112b4576112b3610fe2565b5b828203905092915050565b6112c881610d1b565b82525050565b60006060820190506112e360008301866112bf565b6112f060208301856112bf565b6112fd6040830184610acf565b949350505050565b7f5072696365206d7573742062652067726561746572207468616e207a65726f00600082015250565b600061133b601f83610bd0565b915061134682611305565b602082019050919050565b6000602082019050818103600083015261136a8161132e565b9050919050565b600061137c82610ac5565b91507fffffffffffffffffffffffffffffffffffffffffffffffffffffffffffffffff8214156113af576113ae610fe2565b5b60018201905091905056fea2646970667358221220bbb40e102cbebfee91f04b3cdca4de7c5f1933a15d3b57179846eefc75bab98164736f6c63430008090033",
  "linkReferences": {},
  "deployedLinkReferences": {}
}