{
  "_format": "hh-sol-artifact-1",
  "contractName": "Marketplace",
  "sourceName": "contracts/Marketplace.sol",
  "abi": [
    {
      "inputs": [
        {
          "internalType": "uint256",
          "name": "_feePercent",
          "type": "uint256"
        }
      ],
      "stateMutability": "nonpayable",
      "type": "constructor"
    },
    {
      "anonymous": false,
      "inputs": [
        {
          "indexed": false,
          "internalType": "uint256",
          "name": "itemId",
          "type": "uint256"
        },
        {
          "indexed": true,
          "internalType": "address",
          "name": "nft",
          "type": "address"
        },
        {
          "indexed": false,
          "internalType": "uint256",
          "name": "tokenId",
          "type": "uint256"
        },
        {
          "indexed": false,
          "internalType": "uint256",
          "name": "price",
          "type": "uint256"
        },
        {
          "indexed": true,
          "internalType": "address",
          "name": "seller",
          "type": "address"
        },
        {
          "indexed": true,
          "internalType": "address",
          "name": "buyer",
          "type": "address"
        }
      ],
      "name": "Bought",
      "type": "event"
    },
    {
      "anonymous": false,
      "inputs": [
        {
          "indexed": false,
          "internalType": "uint256",
          "name": "itemId",
          "type": "uint256"
        },
        {
          "indexed": true,
          "internalType": "address",
          "name": "nft",
          "type": "address"
        },
        {
          "indexed": false,
          "internalType": "uint256",
          "name": "tokenId",
          "type": "uint256"
        },
        {
          "indexed": false,
          "internalType": "uint256",
          "name": "price",
          "type": "uint256"
        },
        {
          "indexed": true,
          "internalType": "address",
          "name": "seller",
          "type": "address"
        }
      ],
      "name": "Offered",
      "type": "event"
    },
    {
      "inputs": [],
      "name": "feeAccount",
      "outputs": [
        {
          "internalType": "address payable",
          "name": "",
          "type": "address"
        }
      ],
      "stateMutability": "view",
      "type": "function"
    },
    {
      "inputs": [],
      "name": "feePercent",
      "outputs": [
        {
          "internalType": "uint256",
          "name": "",
          "type": "uint256"
        }
      ],
      "stateMutability": "view",
      "type": "function"
    },
    {
      "inputs": [],
      "name": "itemCount",
      "outputs": [
        {
          "internalType": "uint256",
          "name": "",
          "type": "uint256"
        }
      ],
      "stateMutability": "view",
      "type": "function"
    },
    {
      "inputs": [
        {
          "internalType": "uint256",
          "name": "",
          "type": "uint256"
        }
      ],
      "name": "items",
      "outputs": [
        {
          "internalType": "uint256",
          "name": "itemId",
          "type": "uint256"
        },
        {
          "internalType": "contract IERC721",
          "name": "nft",
          "type": "address"
        },
        {
          "internalType": "uint256",
          "name": "tokenId",
          "type": "uint256"
        },
        {
          "internalType": "uint256",
          "name": "price",
          "type": "uint256"
        },
        {
          "internalType": "address payable",
          "name": "seller",
          "type": "address"
        },
        {
          "internalType": "bool",
          "name": "sold",
          "type": "bool"
        }
      ],
      "stateMutability": "view",
      "type": "function"
    },
    {
      "inputs": [
        {
          "internalType": "contract IERC721",
          "name": "_nft",
          "type": "address"
        },
        {
          "internalType": "uint256",
          "name": "_tokenId",
          "type": "uint256"
        },
        {
          "internalType": "uint256",
          "name": "_price",
          "type": "uint256"
        }
      ],
      "name": "makeItem",
      "outputs": [],
      "stateMutability": "nonpayable",
      "type": "function"
    },
    {
      "inputs": [
        {
          "internalType": "uint256",
          "name": "_itemId",
          "type": "uint256"
        }
      ],
      "name": "purchaseItem",
      "outputs": [],
      "stateMutability": "payable",
      "type": "function"
    }
  ],
  "bytecode": "0x60c060405234801561001057600080fd5b5060405161104d38038061104d833981810160405281019061003291906100af565b3373ffffffffffffffffffffffffffffffffffffffff1660808173ffffffffffffffffffffffffffffffffffffffff16815250508060a08181525050506100dc565b600080fd5b6000819050919050565b61008c81610079565b811461009757600080fd5b50565b6000815190506100a981610083565b92915050565b6000602082840312156100c5576100c4610074565b5b60006100d38482850161009a565b91505092915050565b60805160a051610f3e61010f6000396000818161018e015261023f01526000818161016401526104050152610f3e6000f3fe6080604052600436106100555760003560e01c806365e17c9d1461005a5780636bfb0d01146100855780637fd6f15c146100b0578063bfb231d2146100db578063d38ea5bf1461011d578063fa00afc714610139575b600080fd5b34801561006657600080fd5b5061006f610162565b60405161007c91906108bd565b60405180910390f35b34801561009157600080fd5b5061009a610186565b6040516100a791906108f1565b60405180910390f35b3480156100bc57600080fd5b506100c561018c565b6040516100d291906108f1565b60405180910390f35b3480156100e757600080fd5b5061010260048036038101906100fd919061093d565b6101b0565b604051610114969594939291906109e4565b60405180910390f35b6101376004803603810190610132919061093d565b610239565b005b34801561014557600080fd5b50610160600480360381019061015b9190610a95565b610602565b005b7f000000000000000000000000000000000000000000000000000000000000000081565b60005481565b7f000000000000000000000000000000000000000000000000000000000000000081565b60016020528060005260406000206000915090508060000154908060010160009054906101000a900473ffffffffffffffffffffffffffffffffffffffff16908060020154908060030154908060040160009054906101000a900473ffffffffffffffffffffffffffffffffffffffff16908060040160149054906101000a900460ff16905086565b600060647f0000000000000000000000000000000000000000000000000000000000000000606461026a9190610b17565b600160008581526020019081526020016000206003015461028b9190610b6d565b6102959190610bf6565b905060006001600084815260200190815260200160002090506000831180156102c057506000548311155b6102ff576040517f08c379a00000000000000000000000000000000000000000000000000000000081526004016102f690610c84565b60405180910390fd5b81341015610342576040517f08c379a000000000000000000000000000000000000000000000000000000000815260040161033990610d16565b60405180910390fd5b8060040160149054906101000a900460ff1615610394576040517f08c379a000000000000000000000000000000000000000000000000000000000815260040161038b90610d82565b60405180910390fd5b8060040160009054906101000a900473ffffffffffffffffffffffffffffffffffffffff1673ffffffffffffffffffffffffffffffffffffffff166108fc82600301549081150290604051600060405180830381858888f19350505050158015610402573d6000803e3d6000fd5b507f000000000000000000000000000000000000000000000000000000000000000073ffffffffffffffffffffffffffffffffffffffff166108fc82600301548461044d9190610da2565b9081150290604051600060405180830381858888f19350505050158015610478573d6000803e3d6000fd5b5060018160040160146101000a81548160ff0219169083151502179055508060010160009054906101000a900473ffffffffffffffffffffffffffffffffffffffff1673ffffffffffffffffffffffffffffffffffffffff166323b872dd303384600201546040518463ffffffff1660e01b81526004016104fb93929190610de5565b600060405180830381600087803b15801561051557600080fd5b505af1158015610529573d6000803e3d6000fd5b505050503373ffffffffffffffffffffffffffffffffffffffff168160040160009054906101000a900473ffffffffffffffffffffffffffffffffffffffff1673ffffffffffffffffffffffffffffffffffffffff168260010160009054906101000a900473ffffffffffffffffffffffffffffffffffffffff1673ffffffffffffffffffffffffffffffffffffffff167f8b4c9c8a607d67b321582dd8461041b1dc2ceeca70c8b7f37f8e02095cf2e76d86856002015486600301546040516105f593929190610e1c565b60405180910390a4505050565b60008111610645576040517f08c379a000000000000000000000000000000000000000000000000000000000815260040161063c90610e9f565b60405180910390fd5b60008081548092919061065790610ebf565b91905055508273ffffffffffffffffffffffffffffffffffffffff166323b872dd3330856040518463ffffffff1660e01b815260040161069993929190610de5565b600060405180830381600087803b1580156106b357600080fd5b505af11580156106c7573d6000803e3d6000fd5b505050506040518060c0016040528060005481526020018473ffffffffffffffffffffffffffffffffffffffff1681526020018381526020018281526020013373ffffffffffffffffffffffffffffffffffffffff1681526020016000151581525060016000805481526020019081526020016000206000820151816000015560208201518160010160006101000a81548173ffffffffffffffffffffffffffffffffffffffff021916908373ffffffffffffffffffffffffffffffffffffffff160217905550604082015181600201556060820151816003015560808201518160040160006101000a81548173ffffffffffffffffffffffffffffffffffffffff021916908373ffffffffffffffffffffffffffffffffffffffff16021790555060a08201518160040160146101000a81548160ff0219169083151502179055509050503373ffffffffffffffffffffffffffffffffffffffff168373ffffffffffffffffffffffffffffffffffffffff167f655a0cf9c8db81512be9a76dc1c5ae5380b8816ce6ad659cd61b715e2999d59a600054858560405161086f93929190610e1c565b60405180910390a3505050565b600073ffffffffffffffffffffffffffffffffffffffff82169050919050565b60006108a78261087c565b9050919050565b6108b78161089c565b82525050565b60006020820190506108d260008301846108ae565b92915050565b6000819050919050565b6108eb816108d8565b82525050565b600060208201905061090660008301846108e2565b92915050565b600080fd5b61091a816108d8565b811461092557600080fd5b50565b60008135905061093781610911565b92915050565b6000602082840312156109535761095261090c565b5b600061096184828501610928565b91505092915050565b6000819050919050565b600061098f61098a6109858461087c565b61096a565b61087c565b9050919050565b60006109a182610974565b9050919050565b60006109b382610996565b9050919050565b6109c3816109a8565b82525050565b60008115159050919050565b6109de816109c9565b82525050565b600060c0820190506109f960008301896108e2565b610a0660208301886109ba565b610a1360408301876108e2565b610a2060608301866108e2565b610a2d60808301856108ae565b610a3a60a08301846109d5565b979650505050505050565b6000610a508261087c565b9050919050565b6000610a6282610a45565b9050919050565b610a7281610a57565b8114610a7d57600080fd5b50565b600081359050610a8f81610a69565b92915050565b600080600060608486031215610aae57610aad61090c565b5b6000610abc86828701610a80565b9350506020610acd86828701610928565b9250506040610ade86828701610928565b9150509250925092565b7f4e487b7100000000000000000000000000000000000000000000000000000000600052601160045260246000fd5b6000610b22826108d8565b9150610b2d836108d8565b9250827fffffffffffffffffffffffffffffffffffffffffffffffffffffffffffffffff03821115610b6257610b61610ae8565b5b828201905092915050565b6000610b78826108d8565b9150610b83836108d8565b9250817fffffffffffffffffffffffffffffffffffffffffffffffffffffffffffffffff0483118215151615610bbc57610bbb610ae8565b5b828202905092915050565b7f4e487b7100000000000000000000000000000000000000000000000000000000600052601260045260246000fd5b6000610c01826108d8565b9150610c0c836108d8565b925082610c1c57610c1b610bc7565b5b828204905092915050565b600082825260208201905092915050565b7f6974656d20646f65736e27742065786973740000000000000000000000000000600082015250565b6000610c6e601283610c27565b9150610c7982610c38565b602082019050919050565b60006020820190508181036000830152610c9d81610c61565b9050919050565b7f6e6f7420656e6f75676820657468657220746f20636f766572206974656d207060008201527f7269636520616e64206d61726b65742066656500000000000000000000000000602082015250565b6000610d00603383610c27565b9150610d0b82610ca4565b604082019050919050565b60006020820190508181036000830152610d2f81610cf3565b9050919050565b7f6974656d20616c726561647920736f6c64000000000000000000000000000000600082015250565b6000610d6c601183610c27565b9150610d7782610d36565b602082019050919050565b60006020820190508181036000830152610d9b81610d5f565b9050919050565b6000610dad826108d8565b9150610db8836108d8565b925082821015610dcb57610dca610ae8565b5b828203905092915050565b610ddf81610a45565b82525050565b6000606082019050610dfa6000830186610dd6565b610e076020830185610dd6565b610e1460408301846108e2565b949350505050565b6000606082019050610e3160008301866108e2565b610e3e60208301856108e2565b610e4b60408301846108e2565b949350505050565b7f5072696365206d7573742062652067726561746572207468616e207a65726f00600082015250565b6000610e89601f83610c27565b9150610e9482610e53565b602082019050919050565b60006020820190508181036000830152610eb881610e7c565b9050919050565b6000610eca826108d8565b91507fffffffffffffffffffffffffffffffffffffffffffffffffffffffffffffffff821415610efd57610efc610ae8565b5b60018201905091905056fea2646970667358221220f556cb92cbe55dfc980b6c460e98fd426ce572650cb10d500823402cae0bcb8364736f6c63430008090033",
  "linkReferences": {},
  "deployedLinkReferences": {}
}